:100000000C9434000C949B000C94BF000C94510091
:100010000C9451000C9451000C9451000C9451001C
:100020000C9451000C9451000C9451000C9451000C
:100030000C9451000C9451000C9451000C945100FC
:100040000C9451000C9451000C9451000C945100EC
:100050000C9451000C9451000C9451000C945100DC
:100060000C9451000C94510011241FBECFEFD8E026
:10007000DEBFCDBF11E0A0E0B1E0E6E4F3E002C0F6
:1000800005900D92AC32B107D9F721E0ACE2B1E0B6
:1000900001C01D92AF32B207E1F70E94E3000C9459
:1000A000A1010C94000080912E01E9B199B18770F3
:1000B000E695E27093FB992790F9E92B24E0829F63
:1000C000C0011124855F9E4FE80FF92FF11D80813B
:1000D00080932E0180912E0184FF1FC080E091E06B
:1000E0000E943F0180912C0190912D0101969093E7
:1000F0002D0180932C0180912C0190912D010E9463
:10010000520186E091E00E943F0180912E010E9401
:10011000220188E091E00C943F0180912E0185FF3F
:10012000EACF83E091E00E943F0180912C01909101
:100130002D010197DCCF1F920F920FB60F92112461
:100140002F933F934F935F936F937F938F939F93DF
:10015000AF93BF93EF93FF930E945300FF91EF91F2
:10016000BF91AF919F918F917F916F915F914F91CF
:100170003F912F910F900FBE0F901F9018951F92D7
:100180000F920FB60F9211242F933F934F935F93CB
:100190006F937F938F939F93AF93BF93EF93FF934F
:1001A0000E949B00FF91EF91BF91AF919F918F9122
:1001B0007F916F915F914F913F912F910F900FBE63
:1001C0000F901F9018958BB18C608BB90E940A011B
:1001D0008DB383608DBB80916900816080936900DD
:1001E00080916900846080936900789480E890E051
:1001F0000FB6F89480936100909361000FBE89B1AF
:1002000099B18695827093FB992790F9892B8093F9
:100210002E01FFCF1092C50087E68093C400E0EC6A
:10022000F0E080818D7F808388E18093C10086E04B
:100230008093C20008959091C00095FFFCCF8093F9
:10024000C60008950F931F93CF93DF93C7E0D0E0CC
:10025000082F10E0C8010C2E02C0959587950A94CE
:10026000E2F780FF0AC081E30E941B01219790F70B
:10027000DF91CF911F910F91089580E3F5CF0F93F8
:100280001F93CF938C01C0E0F801EC0FF11D80812A
:10029000811104C0CF911F910F9108950E941B01FD
:1002A000CF5FF2CF0F931F93CF93DF938C0160E169
:1002B00077E20E948D0180E3860F0E941B01C80136
:1002C00068EE73E00E948D01CB01CAE0D0E0BE0170
:1002D0000E948D01805D0E941B01C80164E670E0F0
:1002E0000E948D01CB01BE010E948D01805D0E94A4
:1002F0001B01C801BE010E948D01182FCB01BE0158
:100300000E948D01805D0E941B0180E3810FDF91BF
:10031000CF911F910F910C941B01AA1BBB1B51E1A4
:1003200007C0AA1FBB1FA617B70710F0A61BB70B65
:10033000881F991F5A95A9F780959095BC01CD010A
:060340000895F894FFCFC0
:100346002B2B002D2D0020000D0A0000211203107A
:1003560001022320010213031126030425160314A8
:0C03660005062324040613030303030010
:00000001FF
